{
  "contractName": "luggage",
  "abi": [
    {
      "inputs": [],
      "payable": false,
      "stateMutability": "nonpayable",
      "type": "constructor"
    },
    {
      "anonymous": false,
      "inputs": [
        {
          "indexed": false,
          "name": "hash",
          "type": "string"
        },
        {
          "indexed": false,
          "name": "from",
          "type": "address"
        }
      ],
      "name": "luggageAdded",
      "type": "event"
    },
    {
      "constant": false,
      "inputs": [
        {
          "name": "hash",
          "type": "string"
        }
      ],
      "name": "CheckInLuggage",
      "outputs": [
        {
          "name": "",
          "type": "bool"
        }
      ],
      "payable": true,
      "stateMutability": "payable",
      "type": "function"
    },
    {
      "constant": true,
      "inputs": [],
      "name": "GetLuggageForUsr",
      "outputs": [
        {
          "name": "",
          "type": "string"
        }
      ],
      "payable": false,
      "stateMutability": "view",
      "type": "function"
    },
    {
      "constant": false,
      "inputs": [],
      "name": "killLuggage",
      "outputs": [
        {
          "name": "",
          "type": "bool"
        }
      ],
      "payable": false,
      "stateMutability": "nonpayable",
      "type": "function"
    }
  ],
  "bytecode": "0x608060405234801561001057600080fd5b5033600160006101000a81548173ffffffffffffffffffffffffffffffffffffffff021916908373ffffffffffffffffffffffffffffffffffffffff160217905550610505806100616000396000f300608060405260043610610057576000357c0100000000000000000000000000000000000000000000000000000000900463ffffffff1680633aec46f81461005c5780635d51a29f146100ec578063f0f9c5861461011b575b600080fd5b34801561006857600080fd5b5061007161018f565b6040518080602001828103825283818151815260200191508051906020019080838360005b838110156100b1578082015181840152602081019050610096565b50505050905090810190601f1680156100de5780820380516001836020036101000a031916815260200191505b509250505060405180910390f35b3480156100f857600080fd5b5061010161026d565b604051808215151515815260200191505060405180910390f35b610175600480360381019080803590602001908201803590602001908080601f0160208091040260200160405190810160405280939291908181526020018383808284378201915050505050509192919290505050610306565b604051808215151515815260200191505060405180910390f35b60606000803373ffffffffffffffffffffffffffffffffffffffff1673ffffffffffffffffffffffffffffffffffffffff1681526020019081526020016000208054600181600116156101000203166002900480601f0160208091040260200160405190810160405280929190818152602001828054600181600116156101000203166002900480156102635780601f1061023857610100808354040283529160200191610263565b820191906000526020600020905b81548152906001019060200180831161024657829003601f168201915b5050505050905090565b6000600160009054906101000a900473ffffffffffffffffffffffffffffffffffffffff1673ffffffffffffffffffffffffffffffffffffffff163373ffffffffffffffffffffffffffffffffffffffff161415156102cb57600080fd5b600160009054906101000a900473ffffffffffffffffffffffffffffffffffffffff1673ffffffffffffffffffffffffffffffffffffffff16ff5b6000816000803373ffffffffffffffffffffffffffffffffffffffff1673ffffffffffffffffffffffffffffffffffffffff168152602001908152602001600020908051906020019061035a929190610434565b507f992e6d0412623e5fada92ace0dc83a5d1e9a702b000e762f454a0c5e4090f18b823360405180806020018373ffffffffffffffffffffffffffffffffffffffff1673ffffffffffffffffffffffffffffffffffffffff168152602001828103825284818151815260200191508051906020019080838360005b838110156103f05780820151818401526020810190506103d5565b50505050905090810190601f16801561041d5780820380516001836020036101000a031916815260200191505b50935050505060405180910390a160019050919050565b828054600181600116156101000203166002900490600052602060002090601f016020900481019282601f1061047557805160ff19168380011785556104a3565b828001600101855582156104a3579182015b828111156104a2578251825591602001919060010190610487565b5b5090506104b091906104b4565b5090565b6104d691905b808211156104d25760008160009055506001016104ba565b5090565b905600a165627a7a723058205fd57212a8fc329b8ca3a8f51c0db8fa3da344d81ad6d6dda1f9d8c74cefdc760029",
  "source": "pragma solidity ^0.4.18;\n\n/** @title Airport luggage Check-In Ap */\n\ncontract luggage{\n  /** @dev Will facilitate the air traveller to track their luggage while on-boarding.\n  * @param Mapping between the address of the user and the IPFS hash which contains details.\n  * @return the Checkin ID.\n  */\n  mapping (address => string) luggageID;\n  //Address of the owner who deployed the App\n  address luggageTracker;\n\n  //Constructor which will store the address of the deployer\n  constructor() public {\n    luggageTracker = msg.sender;\n  }\n\n  event luggageAdded(string hash, address from);\n\n  function CheckInLuggage(string hash) payable public returns(bool)\n  {\n    luggageID[msg.sender] = hash;\n    emit luggageAdded(hash, msg.sender);\n    return true;\n  }\n\n  //this function will retun the IPFS hash of the customer luggage check-In details\n  function GetLuggageForUsr() public view returns(string)\n  {\n      return luggageID[msg.sender];\n  }\n\n  modifier isOwner() {\n        require(msg.sender == luggageTracker);\n        _;\n    }\n\n  //This function will send the balance to owner's account and selfdestruct the contract\n  function killLuggage() isOwner public returns (bool)\n  {\n    selfdestruct(luggageTracker);\n    return true;\n  }\n}\n",
  "sourcePath": "/root/learn2writecontract/luggage/contracts/luggage.sol",
  "compiler": {
    "name": "solc",
    "version": "0.4.24+commit.e67f0147.Emscripten.clang"
  },
  "schemaVersion": "2.0.0",
  "updatedAt": "2018-08-23T03:02:13.304Z"
}